:100000000C9434000C945A000C945A000C945A002E
:100010000C945A000C945A000C94BE080C945A008C
:100020000C945A000C945A000C945A000C94F60E3E
:100030000C945A000C945A000C945A0E0C945A00CA
:100040000C945A000C945A000C945A000C945A00C8
:100050000C945A000C945A000C945A000C94180FEB
:100060000C945A000C945A0011241FBECFEFD8E014
:10007000DEBFCDBF14BE88E10FB6F8948093600058
:10008000109260000FBE11E0A0E0B1E0E2E5F4E301
:1000900002C005900D92A631B107D9F711E0A6E193
:1000A000B1E001C01D92A53EB107E1F70E94BC1866
:1000B0000C94271A0C94000020910001309101014A
:1000C0002D5F3F4FC9010895CF93DF930E94F30A3C
:1000D0000E945A0BC0910001D09101010E94430B74
:1000E0008883C0910001D09101011F868881898396
:1000F0008A83188A198A1C8A1B8A84E190E09E8B65
:100100008D8B198E1A8E1B8E1C8EFE01EB59FF4FA4
:1001100085E08083FE01ED59FF4F82E08083FE0180
:10012000E559FF4F1082FE01E459FF4F10821B82F8
:10013000CE0103960E9429119E878D87E0910001D0
:10014000F091010181E09081943608F080E0828B8B
:10015000DF01A659BF4F8C9381E0818BDF91CF9156
:100160000895CF93DF93C0910001D091010181E008
:10017000898B1B82CE0103960E9429119E878D8751
:10018000DF91CF9108951F93CF93DF93EC01CB01C3
:100190000E947B0B9985992321F0DF91CF911F91CC
:1001A00008959981A0910001B09101011C919117CE
:1001B00009F43FC09923E9F18B35D8F550967C912D
:1001C0005097772309F475C05D962C915D9792172F
:1001D00009F4AAC0FD01B49621E030E007C0A901EE
:1001E00060812F5F3F4F3796961739F0422F2717C0
:1001F000B0F37A3008F45DC050E0BA01660F771FA3
:10020000660F771F660F771FFB01E41BF50BEA0FE4
:10021000FB1F958F9A81968F9B81978F9C8190A3CE
:1002200081A38C81882309F45BC083A18F5F83A3A2
:1002300012A288818230C1F0843009F0AECF8D8166
:100240001813ABCF81E052968C935297FD01E6597B
:10025000FF4F808353968D919C9154974496589666
:100260009C938E93579799CF8981181709F495CF4E
:100270009B811917D1F18A81181709F44CC0509647
:100280008C9150978130C9F11F968C911F978130C6
:1002900009F083CFFD01E459FF4F81E0808353963D
:1002A0008D919C915497449658969C938E93579712
:1002B00074CF972F9F5F50969C935097472F50E095
:1002C000BA01660F771F660F771F660F771F9B01B6
:1002D000241B350B2A0F3B1FF90112A2998194CFE1
:1002E00082A18F5F82A313A2A4CF11968C93119742
:1002F00081E01F968C931F97BECF9A811913C4CFAC
:10030000998111969C93119712969C9312971F9620
:100310008C931F97BFCF898112968C93129781E09F
:100320001F968C931F97ABCF40E050E060E070E0E9
:100330006BCFDF92EF92FF920F931F93CF93DF93D8
:100340008EE190E00E94370AC0910001D091010136
:100350008F85882309F489C08B899C892F89388DE2
:100360008217930720F02F85213009F457C02D897B
:100370003E898217930748F12989222331F12F8979
:10038000388D8217930708F425C19F85913009F4B1
:1003900027C181E08B8388818C8329812D832A81E9
:1003A0002E83188689879F831C86CE0103960E9420
:1003B00029119E878D87C0910001D0910101198A72
:1003C0008B899C8944969E8B8D8BFE01E659FF4F4D
:1003D00080818370880F880FFE01E459FF4F2081D0
:1003E000237090E1299F90011124822BC559DF4F82
:1003F00098819370892B0E94D20EE0910001F091B8
:100400000101838994890196948B838BDF91CF912D
:100410001F910F91FF90EF90DF900895298922237B
:1004200009F4A5CF2A89213009F0A1CF998184E070
:100430008B8388818C839D833A813E8398878987CB
:100440002F831C86CE0103960E9429119E878D87DB
:10045000C0910001D0910101198AFE01E659FF4FB8
:1004600010821A8A8B899C8982CF3889332309F4B8
:1004700073CFFE01B396232F2150CE018A9647E019
:10048000249F800D911D112440E0DF0113972C91D2
:1004900021115DC0DF0111972C91233008F04F5FCF
:1004A0003796E817F90789F7431356CF88A18130AB
:1004B00009F456C0CE018796542F51509C0167E035
:1004C000569F200D311D112407C00796FC01379758
:1004D0006081613009F444C082179307B1F7541763
:1004E00008F03ACF2989213009F036CF2F878B8940
:1004F0009C894496988F8F8B852F90E0FC01EE0F9E
:10050000FF1FEE0FFF1FEE0FFF1FE81BF90BEC0F95
:10051000FD1F368D3983958D9A83FE01E459FF4F77
:10052000208382E08B8388818C833D839E83188621
:1005300089872F831C86CE0103960E9429119E87EE
:100540008D87C0910001D0910101198A05CF21301A
:1005500009F0A6CF2081233008F4A2CF4F5FA0CFAF
:10056000DE019196542F0FEF1FEFD12CBE016C5D71
:100570007F4F04C0D3941796D41671F1FD013197C3
:1005800080818130B9F7FD013397E0808D8DE816C9
:10059000B9F1FB0181E090E0841760F79C01F080E5
:1005A00001963796EF10F8CFFC90F901EE0FFF1F80
:1005B000EE0FFF1FEE0FFF1FE21BF30BEC0FFD1FF3
:1005C00081A190E08F0D911D8017910798F68C0105
:1005D0005D2DD0CF9F85DDCE5D1508F483CFBCCED9
:1005E0008A89813009F0D5CE298194E09B83988156
:1005F0009C832D833A813E83288799878F83D4CE2D
:1006000020E030E0D1CF0C94420A813079F028F01C
:10061000823091F0833029F0089560E080E00C94FE
:10062000420A6091D00180E00C94420A6091E3019B
:100630008091E2010C94420A60E08091E4010C9404
:10064000420A91E08B3508F090E0892F0895A0913F
:100650000001B091010150964C915097442331F123
:10066000FD01B396242F2150CD018A9637E0239FB8
:10067000800D911D112430E0DF0113972C91211181
:100680000EC0DF0111972C91233008F03F5F3796A1
:10069000E817F90789F781E0341380E008952130E5
:1006A000B1F72081233098F33F5FF1CF30E0F3CFF3
:1006B000582FE0910001F09101014089442399F005
:1006C000858D851781F09F012C5D3F4F80E007C02D
:1006D000295F3F4FF90137979081951729F08F5F78
:1006E0008413F6CF089580E00895E0910001F09121
:1006F000010120892223B9F080A18130B1F0CF011E
:1007000087962150AC0167E0269F400D511D1124B2
:100710009A0106C00796FC0137974081413029F0C5
:1007200082179307B9F781E0089580E00895DF927A
:10073000EF92FF920F931F93CF93DF93C09100012D
:10074000D09101019889992309F46EC088A1813064
:1007500009F19E01295D3F4F892F8150A90167E072
:10076000869F400D511D112407C0295F3F4FF9019D
:1007700037976081613071F024173507B1F7891719
:1007800008F052C0DF91CF911F910F91FF90EF9031
:10079000DF900895DE019196D92E0FEF1FEF80E0D4
:1007A000BE016C5D7F4F04C08F5F1796891781F182
:1007B000FD01319720812130B9F7FD013397E080A9
:1007C0002D8DE216D1F1FB0121E030E0291760F711
:1007D000A901F0802F5F3F4F3796EF10F7CFFC90C5
:1007E000FA01EE0FFF1FEE0FFF1FEE0FFF1FE41BBE
:1007F000F50BEC0FFD1F21A130E02F0D311D20174F
:10080000310790F68901D82E8F5F17968913D0CFC4
:10081000D81608F0B7CF8D2DDF91CF911F910F9192
:10082000FF90EF90DF900895892FDF91CF911F9176
:100830000F91FF90EF90DF90089540E050E0CFCF10
:10084000CF93DF93EC018981A0910001B091010168
:100850009C918917E1F18823D1F16B35C0F5509651
:100860007C9150977723E9F15D969C915D9789176C
:1008700009F44EC0FD01B49621E030E007C0A901A3
:1008800090812F5F3F4F3796891731F0422F2717FE
:10089000B0F37A3030F150E09A01220F331F220F6B
:1008A000331F220F331FF901E41BF50BEA0FFB1F67
:1008B000858F8A81868F8B81878F8C8180A361A3AE
:1008C0008C81882339F083A18F5F83A312A2DF91EB
:1008D000CF91089582A18F5F82A313A2DF91CF9160
:1008E0000895872F8F5F50968C935097472F50E035
:1008F0009A01220F331F220F331F220F331FC9010A
:10090000841B950B8A0F9B1FFC0112A28981CBCF00
:1009100040E050E020E030E0C6CFDC0111969C9131
:100920001197E0910001F09101018081981781F009
:1009300013962C911397821741F112969C9112975E
:100940008917E1F09089913021F08785813059F045
:10095000089512962C9112978213F7CF11968C91CD
:10096000818382839787DF01A459BF4F81E08C93F5
:10097000838994894496908F878B089511969C91D2
:100980001197928391E09787DDCF918391E09787CC
:10099000D4CFE0910001F09101012081DC01159696
:1009A0008C912813089581E0828BDF01A659BF4FF7
:1009B0008C93838994894496908F878B0895CF93E5
:1009C000DF93C0910001D09101018B8388818C83DA
:1009D00099819D839A819E83688789878F858F837C
:1009E0001C86CE0103960E9429119E878D87E09177
:1009F0000001F0910101118ADF91CF910895DF92FA
:100A0000EF92FF920F931F93CF93DF93C09100015A
:100A1000D09101018F85882341F0DF91CF911F9103
:100A20000F91FF90EF90DF90089538893323A9F359
:100A3000FE01B396232F2150CE018A9647E0249FD2
:100A4000800D911D112440E0DF0113972C9121119D
:100A50005DC0DF0111972C91233008F04F5F37966E
:100A6000E817F90789F74313D8CF88A1813009F433
:100A700056C0CE018796542F51509C0167E0569F77
:100A8000200D311D112407C00796FC0137976081A6
:100A9000613009F444C082179307B1F7541708F086
:100AA000BCCF2989213009F0B8CF2F878B899C8949
:100AB0004496988F8F8B852F90E0FC01EE0FFF1FDF
:100AC000EE0FFF1FEE0FFF1FE81BF90BEC0FFD1FD2
:100AD000368D3983958D9A83FE01E459FF4F20832B
:100AE00082E08B8388818C833D839E8318868987EF
:100AF0002F831C86CE0103960E9429119E878D8725
:100B0000E0910001F0910101118A87CF213009F0B5
:100B1000A6CF2081233008F4A2CF4F5FA0CFDE0103
:100B20009196542F0FEF1FEFD12CBE016C5D7F4FBC
:100B300004C0D3941796D41661F1FD0131978081DA
:100B40008130B9F7FD013397E0808D8DE81629F1EA
:100B5000FB0181E090E0841760F79C01F080019632
:100B60003796EF10F8CFFC90F901EE0FFF1FEE0F54
:100B7000FF1FEE0FFF1FE21BF30BEC0FFD1F81A108
:100B800090E08F0D911D8017910798F68C015D2DD7
:100B9000D0CF5D1508F485CF40CF20E030E0E3CF23
:100BA000CF93DF93C0910001D09101018B899C8983
:100BB0002D893E898217930738F12989222321F153
:100BC0002F89388D8217930710F19F85913009F195
:100BD00081E08B8388818C8329812D832A812E83D8
:100BE000188689879F831C86CE0103960E9429114F
:100BF0009E878D87E0910001F0910101118A838920
:100C000094894496968B858BDF91CF9108959F852B
:100C1000DFCF8A898130E1F6298194E09B83988136
:100C20009C832D833A813E83288799878F83DBCFEE
:100C3000CF93DF93C0910001D09101012F89388DAE
:100C40008B899C898217930718F08F85813019F062
:100C5000DF91CF91089589898823D1F38A898130E2
:100C6000B9F7298194E09B8398819C832D833A81F5
:100C70003E83288799878F831C86CE0103960E9426
:100C800029119E878D87E0910001F0910101118A61
:100C9000DF01A659BF4F1C92128ADACF089508953A
:100CA00080E090E008950895CF93F89414B817B8B1
:100CB0001AB815B818B81BB8529A5A9A14BC85E0DD
:100CC00085BD8FEF87BD22E020936E0010928000DB
:100CD000109281008FE89BE09093890080938800B8
:100CE00020936F005398239881EA8093B00020935B
:100CF000B1001092B4001092B3008BE080BF83E08B
:100D000080937F0086E080937C0083E880937A0064
:100D100080917A00806480937A0080917A0086FDC9
:100D2000FCCF10927C0083EA80937A0081E080936C
:100D30007B0081E090E00E94C0198F3F11F080930A
:100D400066001092AE01C1E0C0938701C093CB0151
:100D50001092A5011092DF0180E990E00E94C01975
:100D60008093A4018091A401887311F0C093A40121
:100D70001092CF011092CE018FEF90E09093CD01B1
:100D80008093CC011092AA011092AB011092AC0199
:100D90001092AD0181E08093180182E49FE090936E
:100DA000DE018093DD0180EB90E00E94C019C82F26
:100DB00081EB90E00E94C019382F20E02C2B30935B
:100DC000E1012093E00185E090E00E94C01980934A
:100DD000E40189E090E00E94C0198093D0018CE08A
:100DE00090E00E94C0198093E20184E190E00E94AB
:100DF000C0198093E30180E290E00E94C019C82FDF
:100E000081E290E00E94C0193C2F20E0282B309313
:100E1000B0012093AF0180E590E00E94C019C82F77
:100E200081E590E00E94C0193C2F20E0282B3093F0
:100E300089012093880182E290E00E94C019C82FA6
:100E400083E290E00E94C0193C2F20E0282B3093D1
:100E5000B2012093B10182E590E00E94C019C82F31
:100E600083E590E00E94C0193C2F20E0282B3093AE
:100E70008B0120938A0184E290E00E94C019C82F60
:100E800085E290E00E94C0193C2F20E0282B30938F
:100E9000B4012093B30184E590E00E94C019C82FEB
:100EA00085E590E00E94C0193C2F20E0282B30936C
:100EB0008D0120938C0186E290E00E94C019C82F1A
:100EC00087E290E00E94C0193C2F20E0282B30934D
:100ED000B6012093B50186E590E00E94C019C82FA5
:100EE00087E590E00E94C0193C2F20E0282B30932A
:100EF0008F0120938E0188E290E00E94C019C82FD4
:100F000089E290E00E94C0193C2F20E0282B30930A
:100F1000B8012093B70188E590E00E94C019C82F5E
:100F200089E590E00E94C0193C2F20E0282B3093E7
:100F30009101209390018AE290E00E94C019C82F8D
:100F40008BE290E00E94C0193C2F20E0282B3093C8
:100F5000BA012093B9018AE590E00E94C019C82F18
:100F60008BE590E00E94C0193C2F20E0282B3093A5
:100F70009301209392018CE290E00E94C019C82F47
:100F80008DE290E00E94C0193C2F20E0282B309386
:100F9000BC012093BB018CE590E00E94C019C82FD2
:100FA0008DE590E00E94C0193C2F20E0282B309363
:100FB0009501209394018EE290E00E94C019C82F01
:100FC0008FE290E00E94C0193C2F20E0282B309344
:100FD000BE012093BD018EE590E00E94C019C82F8C
:100FE0008FE590E00E94C0193C2F20E0282B309321
:100FF00097012093960180E390E00E94C019C82FCA
:1010000081E390E00E94C0193C2F20E0282B309310
:10101000C0012093BF0180E690E00E94C019C82F54
:1010200081E690E00E94C0193C2F20E0282B3093ED
:1010300099012093980182E390E00E94C019C82F83
:1010400083E390E00E94C0193C2F20E0282B3093CE
:10105000C2012093C10182E690E00E94C019C82F0E
:1010600083E690E00E94C0193C2F20E0282B3093AB
:101070009B0120939A0184E390E00E94C019C82F3D
:1010800085E390E00E94C0193C2F20E0282B30938C
:10109000C4012093C30184E690E00E94C019C82FC8
:1010A00085E690E00E94C0193C2F20E0282B309369
:1010B0009D0120939C0186E390E00E94C019C82FF7
:1010C00087E390E00E94C0193C2F20E0282B30934A
:1010D000C6012093C50186E690E00E94C019C82F82
:1010E00087E690E00E94C0193C2F20E0282B309327
:1010F0009F0120939E0188E390E00E94C019C82FB1
:1011000089E390E00E94C0193C2F20E0282B309307
:10111000C8012093C70188E690E00E94C019C82F3B
:1011200089E690E00E94C0193C2F20E0282B3093E4
:10113000A1012093A0018AE390E00E94C019C82F6A
:101140008BE390E00E94C0193C2F20E0282B3093C5
:10115000CA012093C9018AE690E00E94C019C82FF5
:101160008BE690E00E94C0193C2F20E0282B3093A2
:10117000A3012093A2017894CF9108951F920F921A
:101180000FB60F9211248F9388E10FB6F8948093D5
:101190006000109260000FBE8F910F900FBE0F90F5
:1011A0001F9018957C01EB01D12C88248A9486E04D
:1011B000982E93E8A92E08E110E029E2B22E34E03F
:1011C000C32E809118018330B9F1843008F03EC0FD
:1011D000813009F4BEC008F44BC08091AE0181118A
:1011E00000C1F89490927C00A0927A0080917A00DD
:1011F000806480937A0080917A0086FDFCCF2091F4
:1012000078003091790078942B3A92E039070CF00D
:1012100002C12938E2E03E070CF004C12736324013
:101220000CF4DFC0559A549A3B9A3A9A3D983C98F0
:1012300080911801833049F6DD2009F4D9C0C092AD
:101240001801DD24D394FE010995BBCF853009F444
:1012500062C0C8F3863009F0B4CF809116018111C5
:1012600094C01092B3001092B40010921701A9CF4D
:10127000F89480B7877F80BF80917A008F778093C2
:101280007A0014B817B81AB815B818B81BB80FB642
:10129000F894A895009360000FBEB0926000809112
:1012A000600080648093600083B7817F846083BF27
:1012B000F89483B7816083BF7894889583B78E7FD5
:1012C00083BF78941092AE01529A5A9A80917A0014
:1012D000806880937A0087E592E00197F1F700C07B
:1012E000000080B7886180BF559A549A3B9A3A9A19
:1012F0003D9A3C9AEFE1FEE43197F1F700C000001F
:101300008091AE01811177C0559854983B983A98D6
:101310003D983C9856CF4899F7CF559A54983B98AA
:101320003A983D983C988FEC97E00197F1F700C010
:101330000000559854983B983A983D983C989FEFF8
:10134000E1EEF4E09150E040F040E1F700C0000031
:1013500038CF559854983B9A3A9A3D983C98EFEC80
:10136000F7E03197F1F700C00000559854983B988A
:101370003A983D983C98FFEF21EE84E0F1502040F0
:101380008040E1F700C000001CCF909116018091D1
:101390001701981709F415CF809116018093170152
:1013A00080911601813009F444C080911601109299
:1013B000B3008092B400823009F44CC08092B30034
:1013C0008092B4008FE295E70197F1F700C000002A
:1013D0008091E3019091E2019093B3008093B40077
:1013E000F0CE559A549A3B983A983D983C98E9CE5D
:1013F000F701099524CF559A549A3B983A983D980D
:101400003C98FFEF20E782E0F15020408040E1F778
:1014100000C0000079CF559854983B9A3A9A3D986D
:101420003C98CFCE559854983B983A983D9A3C9A20
:10143000C8CE8092B3001092B4008FE295E7019776
:10144000F1F700C000008091E4018093B300109296
:10145000B400B7CEEFE2F5E73197F1F700C0000036
:101460008091D0011092B3008093B400AACE07C03F
:10147000EFECF7E03197F1F700C00000019700971B
:10148000B9F708958093B3006093B40008958FEF87
:101490008093B3008093B4008FEC97E00197F1F74D
:1014A00000C000008FEC97E00197F1F700C000004A
:1014B0008FEC97E00197F1F700C000008FEC97E008
:1014C0000197F1F700C000008FEC97E00197F1F76A
:1014D00000C000008FEC97E00197F1F700C000001A
:1014E0008FEC97E00197F1F700C000008FEC97E0D8
:1014F0000197F1F700C000008FEC97E00197F1F73A
:1015000000C000008FEC97E00197F1F700C00000E9
:101510008FEC97E00197F1F700C000008FEC97E0A7
:101520000197F1F700C000008FEC97E00197F1F709
:1015300000C000008FEC97E00197F1F700C00000B9
:101540008FEC97E00197F1F700C0000008958091BB
:10155000AE0181111FC0F89487E080937C0083E87E
:1015600080937A0080917A00806480937A008091E1
:101570007A0086FDFCCF209178003091790010929E
:101580007C0083EA80937A0081E080937B007894EA
:10159000C90108952FEF3FEFFBCF8091AE0181117C
:1015A0001FC0F89488EC80937C0087E880937A00D1
:1015B00080917A00806480937A0080917A0086FD21
:1015C000FCCF209178003091790010927C0083EA62
:1015D00080937A0081E080937B007894C90108951C
:1015E0002FEF3FEFFBCF1F93CF93DF9360E070E0CF
:1015F00080E013EAD1E0C6E0B3E8E1E0F0E040E8E3
:1016000050E0F894C0937C00B0937A0090917A00F7
:10161000906490937A0090917A0096FDFCCF20918F
:10162000780030917900A22FA17090917A00906497
:1016300090937A0090917A0096FDFCCF20917800EB
:101640003091790010927C0010937A00D0937B0047
:10165000789421703327A21303C04150510989F6B1
:10166000AA2339F09F01062E01C0220F0A94EAF73F
:10167000822B6F5F7F4F6830710509F0C0CFDF911B
:10168000CF911F91089580910801982F990F990F7C
:10169000990F982720911901822F86958695892781
:1016A0009295969597708927809308012F5F2093D4
:1016B000190108958093080108958091AE01811168
:1016C00017C0F89486E080937C0083E880937A00CA
:1016D00080917A00806480937A0080917A0086FD00
:1016E000FCCF20917800309179007894C901089559
:1016F0002FEF3FEFFBCF2F923F924F925F926F926F
:101700007F928F929F92AF92BF92CF92DF92EF9291
:10171000FF920F931F93CF93DF9300D000D000D0A0
:10172000CDB7DEB75C01FC010280F381E02DFE83C2
:10173000ED83E43823E0F2070CF0D8C080918801F3
:10174000909189018E179F0708F4B4C100918A0116
:1017500010918B010E171F0708F440C200918C01F5
:1017600010918D010E171F0708F441C200918E01E0
:1017700010918F010E171F0708F442C200919001CB
:10178000109191010E171F0708F443C200919201B6
:10179000109193010E171F0708F496C10091940150
:1017A000109195010E171F0708F43CC20091960195
:1017B000109197010E171F0708F43DC20091980180
:1017C000109199010E171F0708F43EC200919A016B
:1017D00010919B010E171F0708F43FC200919C0156
:1017E00010919D010E171F0708F440C200919E0141
:1017F00010919F010E171F0708F446C20091A00127
:101800001091A1010E171F0708F447C20091A20111
:101810001091A3010E171F0708F448C219821A82FB
:1018200080ED8B8390E49C835CE0E52EF12CF70146
:10183000EE0FFF1FE857FE4F80819181B801681BB2
:10184000790B80E090E00E94AC169B01AC010E94F5
:10185000EE133B014C01ED81FE81BF01882777FD2E
:101860008095982F0E9401166B017C01B80180E0E1
:1018700090E00E94AC161B012C0179816A819B814A
:101880008C81272F362F492F582F662D772D882DA5
:10189000992D0E944A149B01AC01C201B1010E9422
:1018A0001A149B01AC01C701B6010E941A1420E072
:1018B00030E040E251E40E944A140E945D168B0120
:1018C000662D772D882D992D0E945D16AB01BC01E8
:1018D000C801BA010E94E518882777FD8095982FE6
:1018E0000E9401160E946512062FE5C00FEFF50158
:1018F000808091808091AF019091B0018815990509
:1019000008F46EC0E090B101F090B201E814F9045F
:1019100008F468C1E090B301F090B401E814F90450
:1019200008F469C1E090B501F090B601E814F9043B
:1019300008F46AC1E090B701F090B801E814F90426
:1019400008F46BC1E090B901F090BA01E814F90411
:1019500008F4D6C0E090BB01F090BC01E814F90493
:1019600008F464C1E090BD01F090BE01E814F904F0
:1019700008F465C1E090BF01F090C001E814F904DB
:1019800008F466C1E090C101F090C201E814F904C6
:1019900008F467C1E090C301F090C401E814F904B1
:1019A00008F468C1E090C501F090C601E814F9049C
:1019B00008F465C1E090C701F090C801E814F9048B
:1019C00008F466C1E090C901F090CA01E814F90476
:1019D00008F467C11AE50F3F31F4812F8F5D51C0C4
:1019E00010E00F3FD1F32D813E81B901882777FDAB
:1019F0008095982F0E9401166B017C01602F70E08A
:101A000080E090E00E94AC164B015C01A7019601BA
:101A100060E070E081E694E40E941A149B01AC013E
:101A2000C501B4010E944A144B015C01612F70E0B2
:101A300080E090E00E94AC162B013C0120E030E0F9
:101A40004FE254E4C701B6010E941A149B01AC0195
:101A5000C301B2010E944A149B01AC01C501B4014B
:101A60000E94EE1320E030E048E453E40E942F157A
:101A700020E030E044E052E40E94EE130E94651240
:101A8000862F26960FB6F894DEBF0FBECDBFDF912E
:101A9000CF911F910F91FF90EF90DF90CF90BF906B
:101AA000AF909F908F907F906F905F904F903F90FE
:101AB0002F90089500E02D813E812D3B32400CF0A7
:101AC00016CF802F8F5DDDCF65E085E090E07C0153
:101AD00031E0E31AF10870E080E090E00E94AC167B
:101AE00020E030E040E05FE30E944A1420E030E074
:101AF000A9010E94EE1369837A838B839C8397CE1E
:101B000085E0382EE5E0F0E0EE0FFF1FE355FE4FD5
:101B100080819181B701681B790B80E090E00E9481
:101B2000AC169B01AC010E94EE13262EC72ED82EB8
:101B3000192FB401882777FD8095982F0E940116F0
:101B40002B013C01B70180E090E00E94AC164B01F4
:101B50005C01632D70E080E090E00E94AC1620E014
:101B600030E040E05FE30E944A1420E030E0A90149
:101B70000E94EE13222D3C2D4D2D512F0E944A1410
:101B80009B01AC01C501B4010E941A149B01AC0178
:101B9000C301B2010E941A1420E030E040E251E497
:101BA0000E944A140E945D167B01622D7C2D8D2DB2
:101BB000912F0E945D16AB01BC01C701BA010E94C2
:101BC000E518882777FD8095982F0E9401160E94BE
:101BD0006512162F6F3F09F004CF73CF61E081E0EB
:101BE00090E075CF33243394E1E0F0E08DCF62E0F4
:101BF00082E090E06CCF32E0332EE2E0F0E084CF80
:101C000063E083E090E063CF23E0322EE3E0F0E096
:101C10007BCF64E084E090E05ACF94E0392EE4E09A
:101C2000F0E072CF66E086E090E051CF16E0312E12
:101C3000E6E0F0E069CF67E087E090E048CFB7E00A
:101C40003B2EE7E0F0E060CF68E088E090E03FCF37
:101C5000A8E03A2EE8E0F0E057CF69E089E090E0B4
:101C600036CFF9E03F2EE9E0F0E04ECF6AE08AE0BF
:101C700090E02DCFEAE03E2EEAE0F0E045CF7BE0B9
:101C8000372EEBE0F0E040CF6BE08BE090E01FCF31
:101C90006CE0362EECE0F0E037CF6CE08CE090E0CA
:101CA00016CF5DE0352EEDE0F0E02ECF6DE08DE05B
:101CB00090E00DCF1F920F920FB60F9211242F9329
:101CC0003F934F935F936F937F938F939F93AF93C4
:101CD000BF93EF93FF932091CE013091CF0180917C
:101CE000CC019091CD01280F391F3093CF01209363
:101CF000CE018FEF90E09093CD018093CC018FEFD8
:101D000087BD8091AA019091AB01A091AC01B091E7
:101D1000AD010196A11DB11D8093AA019093AB0165
:101D2000A093AC01B093AD018091AE0181110BC0C5
:101D30008091DD019091DE018217930720F480915C
:101D40001801843089F0FF91EF91BF91AF919F917D
:101D50008F917F916F915F914F913F912F910F9054
:101D60000FBE0F901F901895E0910401F0910501AE
:101D70000995009741F30E94E211811109C00E9468
:101D8000B01999279093CD018093CC0187BDDBCF0B
:101D9000E0910201F091030109951092CF01109298
:101DA000CE01D1CF80FF11C0559A81FF11C0549A46
:101DB00082FF11C03B9A83FF11C03A9A84FF11C081
:101DC0003D9A85FD11C03C980895559881FDEFCF4F
:101DD000549882FDEFCF3B9883FDEFCF3A9884FD76
:101DE000EFCF3D9885FFEFCF3C9A08951F920F9259
:101DF0000FB60F9211248F939F931092810010922F
:101E000085001092840081E0809387018093CB014C
:101E10001092AE0110927C0093EA90937A00809326
:101E20007B009F918F910F900FBE0F901F90189580
:101E30001F920F920FB60F9211242F933F934F933F
:101E40005F936F937F938F939F93AF93BF93CF9342
:101E5000DF93EF93FF93209184003091850041E060
:101E60004093AE01809187018823A9F110928500EB
:101E700010928400409381001092DF01109287013C
:101E80008091CB018823A1F080917A0086FDFCCF60
:101E900080917800909179009093A9018093A80196
:101EA00081E080937C0093EA90937A0080937B009A
:101EB000FF91EF91DF91CF91BF91AF919F918F9162
:101EC0007F916F915F914F913F912F910F900FBE36
:101ED0000F901F901895C901875891098437994030
:101EE00008F057C026583109A4EFB0E00E94D91875
:101EF000883008F485C0409387018091CB0181111F
:101F00005CC08091A501E82FF0E0EF52FE4F909168
:101F1000DF0190838F5F8093A5018C3049F610928A
:101F2000810010928500109284004093CB011092A2
:101F3000AE01C091DB01D091DC0181ED91E00E9406
:101F40002911C817D90709F0B3CF8091DA0187FFAB
:101F500068C0982F9858933030F053982398109277
:101F6000B4001092B300863809F4BFC008F063C013
:101F7000833809F41BC108F010C1803809F098CFEC
:101F800080916E008D7F80936E0016BCE0E0F0E7DC
:101F90000995109281001092850010928400409360
:101FA00087014093CB011092AE0110927C0083EA2E
:101FB00080937A0040937B007BCF80917A0086FDEE
:101FC000FCCF80917800909179009093A701809345
:101FD000A60110927C0083EA80937A0081E08093CE
:101FE0007B009091DF019923B9F01092810010924B
:101FF0008500109284008093CB011092AE0158CFDF
:1020000021E030E001C0220F8A95EAF78091DF01DC
:10201000822B8093DF014CCF1092CB011092A5014F
:1020200047CFE0910601F091070166EA71E081ED8A
:1020300091E009953DCF883809F4BBC008F4A9C0E8
:10204000893809F47BC08A3809F032CF8091D101F8
:10205000823009F4C9C008F059C081114AC080918A
:102060001801863009F024CF6091E00180EB90E008
:102070000E94C8196091E10181EB90E00E94C819AB
:102080006091E40185E090E00E94C8196091D00160
:1020900089E090E00E94C8196091E2018CE090E034
:1020A0000E94C8196091E30184E190E00E94C81980
:1020B000539823981092B4001092B30081E080935B
:1020C00018018091D101882309F4F2CE8091180182
:1020D000863009F4EDCE539A239A1092B4001092F0
:1020E000B30086E080931801E3CE85E08093180169
:1020F000DFCE813041F78091D2019091D30190934E
:10210000E1018093E00110921601E0CF833009F4E1
:1021100084C08430C1F6809116019091D70183303C
:1021200009F470C08091D6011092170123E020932A
:1021300016018093E2019093E301C8CF80911801CA
:10214000863099F0539A239A1092B4001092B300FB
:10215000559854983B983A983D983C98109216019F
:102160001092170186E08093180181E090E00090C2
:10217000D10102C0880F991F0A94E2F72091E00173
:102180003091E10182239323892B51F5109216019E
:102190008FCE82E0809318018BCE8438F1F08538A1
:1021A00009F086CE81E08093180182CEE0E0F0E075
:1021B000099580911801833009F47ACE8091180135
:1021C000843009F475CE539A239A1092B400109279
:1021D000B30083E0809318016BCE1092180168CE93
:1021E00081E08093160164CE80911601813019F14F
:1021F0008091D4011092170191E090931601809381
:10220000E40164CF8091E30198138CCF8091D601D3
:102210002091E201821388CF59CF8091160182303C
:1022200089F08091D5011092170192E090931601E8
:102230008093D0014BCF8091D4019091E401891318
:10224000D9CF44CF8091D5019091D0018913EBCFA4
:102250003DCFFC0180812FEF3FEF2827022E2295F2
:10226000207F2025032E322F22952F7002262695BF
:1022700032272327220F220F220F20258181282792
:10228000022E2295207F2025032E322F22952F709B
:102290000226269532272327220F220F220F2025E0
:1022A00082812827022E2295207F2025032E322F7F
:1022B00022952F700226269532272327220F220FE0
:1022C000220F202583812827022E2295207F20257A
:1022D000032E322F22952F70022626953227232790
:1022E000220F220F220F202584812827022E2295DB
:1022F000207F2025032E322F22952F70022626952F
:1023000032272327220F220F220F202585812827FD
:10231000022E2295207F2025032E322F22952F700A
:102320000226269532272327220F220F220F20254F
:1023300086812827022E2295207F2025032E322FEA
:1023400022952F700226269532272327220F220F4F
:10235000220F202587812827022E2295207F2025E5
:10236000032E322F22952F700226269532272327FF
:10237000220F220F220F202580852827022E22954A
:10238000207F2025032E322F22952F70022626959E
:1023900032272327220F220F220F2025818528276D
:1023A000022E2295207F2025032E322F22952F707A
:1023B0000226269532272327220F220F220F2025BF
:1023C000C90108950FB6F894A4B12091A4012A2B55
:1023D00024B921E03091A401203029F0000025B17A
:1023E000232B25B904C000000000000000C000003D
:1023F00000000000309525B1232325B92EEA2A9547
:10240000F1F72BEE30B735FF0AC0A4B93091A40123
:10241000309525B1232325B90FBE80E00895000033
:102420002A9581F721E03091A401203029F00000A5
:1024300025B1232B25B904C000000000000000C016
:10244000000000000000309525B1232325B90000CD
:1024500024E52A95F1F7FC018CE0619170E0660FAC
:10246000771F616072609AE041E050E09A01262394
:102470003723232B3091A401203029F0000025B10F
:10248000232B25B904C000000000000000C000009C
:1024900000000000309525B1232325B9000021E577
:1024A0002A95F1F7440F551F9A9501F78A95A9F6D9
:1024B00020B7206120BFA4B93091A401309525B187
:1024C000232325B90FBE81E00895CF92DF92EF92CA
:1024D000FF920F931F936B017C0120E030E040E0FE
:1024E0005FE40E94D21587FD0EC020E030E040E09E
:1024F0005FE4C701B6010E941A140E945D168B01A9
:102500009C01305806C0C701B6010E945D168B01C0
:102510009C01B801C9011F910F91FF90EF90DF90CE
:10252000CF900895A4E0B0E0E8E9F2E10C940F192F
:102530007C016A01FC018081823008F44AC1FB0100
:102540009081923008F442C1843079F4943009F0DB
:1025500040C1F7019181FB018181981709F439C1CC
:10256000ADE0EA2EA1E0FA2E34C1943009F42EC178
:10257000923091F4823009F02CC188E0F701DA0141
:1025800001900D928A95E1F7FB018181F70191811C
:102590008923FA0181831CC1823009F417C1F70134
:1025A00082819381FB01A281B381F70104811581AE
:1025B00026813781FB0184809580A680B780FC014D
:1025C000EA1BFB0BAF01F7FF04C0442755274E1B46
:1025D0005F0B403251050CF074C01E161F06B4F597
:1025E00024013501042E04C07694679457944794CF
:1025F0000A94D2F749825A826B827C82412C512CF8
:102600003201439404C0440C551C661C771C4A9547
:10261000D2F741E0441A5108610871084820592056
:102620006A207B20812C912C5401839445284628D4
:10263000472819F4812C912C540149805A806B80D1
:102640007C8084289528A628B72846C0EF2B09F45B
:1026500043C0840F951F28013901042E04C07694CD
:102660006794579447940A94D2F749825A826B82AE
:102670007C82412C512C3201439404C0440C551CE3
:10268000661C771C4A95D2F741E0441A510861084C
:102690007108402251226222732201E010E020E002
:1026A00030E045284628472819F400E010E098015A
:1026B00049805A806B807C80042915292629372976
:1026C0000BC0A817B90724F4812C912C540104C025
:1026D000CD0100E010E09801F7014181FB0151813B
:1026E000451709F446C0442349F024013501401A36
:1026F000510A620A730A9301820104C00819190978
:102700002A093B0937FD05C0F601118293838283B4
:102710000CC041E0F601418393838283309520957C
:10272000109501951F4F2F4F3F4F0483158326832C
:1027300037830EC0880F991FAA1FBB1FF601848321
:102740009583A683B7838281938101979383828344
:10275000F60184819581A681B781AC01BD0141500C
:102760005109610971094F3F5F4F6F4F7F4310F36C
:102770000CC0F601418393838283080D191D2A1D25
:102780003B1D048315832683378383E0F601808312
:10279000448155816681778177FF1AC0DB01CA01C8
:1027A00081709927AA27BB277695679557954795F6
:1027B000842B952BA62BB72B84839583A683B78375
:1027C0008281938101969383828302C07B0101C041
:1027D0007601C7012496E0E10C942B19A0E2B0E049
:1027E000E4EFF3E10C941D196D8F7E8F8F8F98A30A
:1027F000298F3A8F4B8F5C8FBE016F5E7F4FCE016A
:102800004D960E94EC17BE01675F7F4FCE0149963F
:102810000E94EC17AE014F5F5F4FBE01675F7F4FB5
:10282000CE0141960E9492120E942217A096E2E0E9
:102830000C943919A0E2B0E0E0E2F4E10C941D1927
:102840006D8F7E8F8F8F98A3298F3A8F4B8F5C8FE0
:10285000BE016F5E7F4FCE014D960E94EC17BE0108
:10286000675F7F4FCE0149960E94EC178A8591E001
:1028700089278A87AE014F5F5F4FBE01675F7F4F39
:10288000CE0141960E9492120E942217A096E2E089
:102890000C943919A0E2B0E0E0E5F4E10C940F19D2
:1028A0006D8F7E8F8F8F98A3298F3A8F4B8F5C8F80
:1028B000BE016F5E7F4FCE014D960E94EC17BE01A8
:1028C000675F7F4FCE0149960E94EC17998992303D
:1028D00008F412C08985823008F41AC0943021F4BB
:1028E000823009F4B4C008C0843021F4923009F475
:1028F000AEC00EC0923051F481E02A899A85291326
:1029000001C080E08A8BCE014196A3C0823051F491
:1029100081E02A899A85291301C080E08A87CE0147
:10292000099697C08D889E88AF88B88C0D851E85C6
:102930002F853889E0E2F0E080E090E0DC01C12CF6
:10294000D12C760140E050E0BA0180FE18C0400F63
:10295000511F621F731F8C0D9D1DAE1DBF1D412C8D
:10296000512C32014394401751076207730718F046
:10297000412C512C3201840D951DA61DB71DCC0C88
:10298000DD1CEE1CFF1C37FF02C06894C0F8000F6E
:10299000111F221F331FB694A794979487943197E1
:1029A000A1F62B893C89EB85FC852E0F3F1F2E5FFE
:1029B0003F4F3C832B8321E0EA893A85E31301C032
:1029C00020E02A83EB81FC810CC080FF05C0769556
:1029D0006795579547957068B695A795979587958C
:1029E0003196B7FDF2CF9F010CC0880F991FAA1F27
:1029F000BB1F77FD8160440F551F661F771F215055
:102A000031090097A105E0E4BE0778F32B833C83EE
:102A10008C019D010F7711272227332700341105E0
:102A20002105310559F487FD09C0452B462B472B5D
:102A300029F0805C9F4FAF4FBF4F80788D839E837E
:102A4000AF83B88783E08983CE01019602C08DE011
:102A500091E00E942217A096E0E10C942B19A8E1C6
:102A6000B0E0E5E3F5E10C9417196D8B7E8B8F8B4D
:102A7000988F298B3A8B4B8B5C8BBE01675F7F4FA6
:102A8000CE0145960E94EC17BE016F5F7F4FCE01CD
:102A900041960E94EC179985923008F475C089819F
:102AA000823008F474C02A853A8123272A8794301B
:102AB00011F0923019F4981367C06CC0843039F467
:102AC0001D861E861F86188A1C861B8604C08230BF
:102AD00029F484E08987CE0109965EC08B859C85A8
:102AE0002B813C81821B930B9C878B874D855E8558
:102AF0006F857889CD80DE80EF80F8844C155D0588
:102B00006E057F0538F4440F551F661F771F019728
:102B10009C878B87EFE1F0E000E010E020E030E4FC
:102B200080E090E0DC014C155D056E057F0540F00E
:102B3000802B912BA22BB32B4C195D096E097F09B9
:102B40003695279517950795440F551F661F771FD4
:102B5000319749F78C019D010F77112722273327E1
:102B6000003411052105310559F487FD09C0452BB5
:102B7000462B472B29F0805C9F4FAF4FBF4F80788B
:102B80008D879E87AF87B88BCE01099605C0CE0191
:102B9000019602C08DE091E00E9422176896E8E05D
:102BA0000C943319A8E1B0E0E8EDF5E10C941D199F
:102BB0006D8B7E8B8F8B988F298B3A8B4B8B5C8B9D
:102BC000BE01675F7F4FCE0145960E94EC17BE01A4
:102BD0006F5F7F4FCE0141960E94EC17898582304E
:102BE00058F08981823040F0BE016F5F7F4FCE0187
:102BF00009960E945B1801C08FEF6896E2E00C9482
:102C00003919A8E0B0E0E7E0F6E10C941B1923E0E5
:102C100029838B019C01002737FD0395112722276B
:102C20003327402F0A83611571058105910519F439
:102C300082E0898335C02EE130E03C832B8344233E
:102C400071F061157105810520E8920771F1002787
:102C500011279801061B170B280B390B02C08B019B
:102C60009C01C901B8010E94441901971816190660
:102C70002CF00D831E832F83388712C0082E04C0CA
:102C8000000F111F221F331F0A94D2F70D831E83DA
:102C90002F8338872EE130E0281B390B3C832B83B0
:102CA000CE0101960E94221704C060E070E080E02F
:102CB0009FEC2896E4E00C943719ACE0B0E0E3E632
:102CC000F6E10C941B1969877A878B879C87BE0174
:102CD0006F5F7F4FCE0109960E94EC178981823089
:102CE00091F1823080F1843041F48A81882331F17E
:102CF00000E010E020E030E829C02B813C8137FD66
:102D000022C02F3131058CF78EE190E0821B930BAE
:102D10000D811E812F81388504C036952795179522
:102D200007958A95D2F78A81882381F0309520957E
:102D3000109501951F4F2F4F3F4F08C00FEF1FEF0A
:102D40002FEF3FE703C000E010E09801B801C90190
:102D50002C96E4E00C943719A8E0B0E0E2EBF6E141
:102D60000C9417198B019C011A826115710581055C
:102D7000910519F482E089835DC083E089834EE187
:102D800050E05C834B83C901B8010E94441901974C
:102D900097FF39C0EE27FF27E81BF90B41E050E011
:102DA00060E070E00E2E04C0440F551F661F771FB1
:102DB0000A94D2F741505109610971094023512306
:102DC00062237323C12CD12C7601C394452B462B4F
:102DD000472B19F4C12CD12C760104C036952795C8
:102DE00017950795EA95D2F70C291D292E293F2919
:102DF0000D831E832F8338872EE130E0281B390B8B
:102E00003C832B8317C0009729F40D831E832F83E7
:102E1000388710C0082E04C0000F111F221F331F57
:102E20000A94D2F70D831E832F833887481B590BD2
:102E30005C834B83CE0101960E9422172896E8E01E
:102E40000C9433190F931F93CF93DF93DC011496E7
:102E50004D915D916D917C9117971196EC91119721
:102E60008C91823020F460618FEF90E0A6C08430B6
:102E700009F49EC0823009F495C0411551056105E1
:102E8000710509F492C012962D913C911397223846
:102E90008FEF38070CF058C0C2E8DFEFC21BD30B2E
:102EA000CA31D1056CF58A019B010C2E04C0369500
:102EB0002795179507950A94D2F781E090E0A0E056
:102EC000B0E00C2E04C0880F991FAA1FBB1F0A94E4
:102ED000D2F70197A109B10984239523A623B7232B
:102EE00041E050E060E070E0892B8A2B8B2B19F4D5
:102EF00040E050E0BA01402B512B622B732B03C0F2
:102F000040E050E0BA01DB01CA018F779927AA2778
:102F1000BB2780349105A105B10539F447FF09C0ED
:102F2000405C5F4F6F4F7F4F04C0415C5F4F6F4FFE
:102F30007F4F81E090E041155105610520E4720763
:102F400048F580E090E026C0203831058CF5DB01A3
:102F5000CA018F779927AA27BB2780349105A1053D
:102F6000B10539F447FF09C0405C5F4F6F4F7F4F99
:102F700004C0415C5F4F6F4F7F4F77FD04C0C901B4
:102F800081589F4F07C07695679557954795C9011A
:102F900080589F4F97E076956795579547959A95F6
:102FA000D1F70BC080E090E005C080E090E005C064
:102FB0008FEF90E040E050E0BA01982F9695E0FB4B
:102FC00097F9362F80FB37F9642F752F832FDF9108
:102FD000CF911F910F910895CF92DF92EF92DC0174
:102FE000FB01CC901196DC90119712968C91129760
:102FF0003FE7E32EE8226E2DA60170E0982F991F7F
:103000009927991F13962C91822F880F892B90E076
:1030100027FB222720F92183009729F54115510527
:103020006105710511F482E027C082E89FEF938368
:10303000828327E0440F551F661F771F2A95D1F71B
:1030400083E0808309C0440F551F661F771F82816C
:10305000938101979383828341155105610580E433
:10306000780788F320C08F3F910579F44115510509
:103070006105710519F484E0808319C0E4FE03C082
:1030800081E0808310C010820EC08F579109938316
:10309000828383E0808387E0440F551F661F771F7C
:1030A0008A95D1F770644483558366837783EF9064
:1030B000DF90CF900895CF93FC01DB019081923097
:1030C00008F452C08C91823008F44EC0943071F4F0
:1030D000843039F411962C9130E08181281B31091C
:1030E00048C08181882309F43FC03BC0843029F463
:1030F00011968C91811138C034C0923019F482300D
:10310000B9F735C0823069F3C18111968C9111975E
:10311000C8131DC02281338112968D919C91139703
:10312000821793070CF413C0281739070CF417C043
:10313000448155816681778114968D919D910D9082
:10314000BC91A02D84179507A607B70718F4C111E5
:1031500008C00AC0481759076A077B0740F4C11125
:1031600003C02FEF3FEF05C021E030E002C020E0B8
:1031700030E0C901CF9108950E9454068CE590E09B
:10318000909305018093040181EB90E090930301FB
:103190008093020183EC90E09093070180930601F5
:1031A00069E971E084E690E00E94D20880E090E056
:1031B0000895A29FB001B39FC001A39F01D0B29F09
:1031C000700D811D1124911D089597FB072E16F493
:1031D000009407D077FD09D00E94F91807FC05D0AC
:1031E0003EF4909581959F4F0895709561957F4F1E
:1031F0000895AA1BBB1B51E107C0AA1FBB1FA6173E
:10320000B70710F0A61BB70B881F991F5A95A9F78F
:1032100080959095BC01CD0108952F923F924F92D9
:103220005F926F927F928F929F92AF92BF92CF9256
:10323000DF92EF92FF920F931F93CF93DF93CDB75F
:10324000DEB7CA1BDB0B0FB6F894DEBF0FBECDBFD7
:1032500009942A88398848885F846E847D848C84A8
:103260009B84AA84B984C884DF80EE80FD800C81B1
:103270001B81AA81B981CE0FD11D0FB6F894DEBF94
:103280000FBECDBFED0108950E944D1984FF089532
:10329000CB010E944D19805F0895AA27992329F434
:1032A000A85F982B11F480E10895903118F4AD5F78
:1032B0009295A395990FE8F78A2F992708958F92F1
:1032C0009F92AF92BF92CF92DF92EF92FF92CF93F5
:1032D000DF93EC01688179818A819B816115710599
:1032E0008105910521F464E279ED8BE597E02DE10C
:1032F00033EF41E050E00E94E91949015A019B0176
:10330000AC01A7EAB1E40E94D6196B017C01ACEED6
:10331000B4EFA50194010E94E419C60ED71EE81E61
:10332000F91EF7FE06C081E0C81AD108E10880E85E
:10333000F80AC882D982EA82FB82E894D7F8EE24A0
:10334000FF24C601DF91CF91FF90EF90DF90CF90E7
:10335000BF90AF909F908F9008950E945F1908953D
:1033600089E091E00E945F190895A0E0B0E08093A9
:10337000090190930A01A0930B01B0930C010895E9
:10338000F999FECF92BD81BDF89A992780B508952D
:10339000262FF999FECF1FBA92BD81BD20BD0FB671
:1033A000F894FA9AF99A0FBE019608950E94D918D6
:1033B000A59F900DB49F900DA49F800D911D112489
:1033C0000895B7FF0C94D6190E94D619821B930B4F
:1033D0000895052E97FB16F4009407D057FD0DD0E5
:1033E0000E94051A07FC09D07EF49095809570958F
:1033F00061957F4F8F4F9F4F089550954095309521
:1034000021953F4F4F4F5F4F0895A1E21A2EAA1BFF
:10341000BB1BFD010DC0AA1FBB1FEE1FFF1FA21784
:10342000B307E407F50720F0A21BB30BE40BF50B81
:10343000661F771F881F991F1A9469F7609570950A
:10344000809590959B01AC01BD01CF010895F89442
:02345000FFCFAC
:103452001A01530650064F06AA01000000000000A0
:0634620000000000000064
:00000001FF
